:10000000B05C0020C5180000C1180000C118000035
:1000100000000000000000000000000000000000E0
:10002000000000000000000000000000B51A000001
:100030000000000000000000211B0000651B000004
:10004000C1180000C1180000C1180000C11800004C
:10005000C1180000C1180000C1180000C11800003C
:10006000C1180000C1180000C1180000C11800002C
:10007000C1180000C1180000C1180000C11800001C
:10008000C1180000C1180000C1180000C11800000C
:10009000C11800000000000000000000C1180000AE
:1000A000C1180000C1180000C1180000C1180000EC
:1000B0000000000010B5064C2378002B07D1054B3B
:1000C000002B02D0044800E000BF0123237010BDC4
:1000D0007C00002000000000304E0000084B10B5EE
:1000E000002B03D00749084800E000BF0748036819
:1000F000002B00D110BD064B002BFBD09847F9E731
:100100000000000080000020304E0000304E000053
:1001100000000000F0B5D6464F4680B585B0070018
:100120000192029302ABD9710733012281694A809F
:100130008269536081694069234B98470090002889
:1001400005D0009805B00CBC91469A46F0BD002041
:100150001E4EB04704000025830F820012196B4128
:10016000940F99002143900080185941184C0025A4
:1001700000196941174B9A46174A0023D047174B7D
:1001800099469847BB696A4612895A80BB69019AA9
:100190005A60B9697869124B984700900020B047BF
:1001A00006000027830F820092197B41960F990069
:1001B000314390008018594100196941064A0023D3
:1001C000D047C847BDE7C046B5090000511600003A
:1001D000BFCF6A0011260000C0CF6A0001000020D6
:1001E0008D090000F0B5D6464F464646C0B582B0F0
:1001F00004000622002168461F4B984706236A46E2
:10020000322120001D4DA84780466B465B781B02BB
:100210006A461078C01800B2D3781B029778FF188E
:100220003FB253791B021579ED182DB220806780FB
:10023000A580134EB047134B9A46134A134BD04731
:10024000134B99469847A0603800B0470E4A0F4BB1
:10025000D047C847E0602800B0470B4A0B4BD04757
:10026000C84720614046431E9841C0B202B01CBC42
:1002700090469946A246F0BDE542000015010000F7
:1002800041400000AD340000DE718A8EE4F26F3F21
:100290003541000070B584B001AC21701D1E07DD32
:1002A00000212600013114788C550132A942F9DB76
:1002B000013382695380836901AA5A608169406968
:1002C0000F4B9847040000200E4B98470200002374
:1002D000910F900080185941850F8B002B438200AD
:1002E00080185941084A002380185941074A0023C1
:1002F000074DA847074B9847200004B070BDC04683
:10030000A109000051160000BFCF6A00C0CF6A00EB
:10031000112600000100002070B582B00400416188
:1003200082610123538082690023536053228169D3
:100330000A80826953728269137200228260C260ED
:1003400002610380438083806B46DE1D01233200FF
:100350000021134DA847451EA841C5B23378E52BAF
:1003600003D00135280002B070BD6B469A1D0A23E8
:100370001370093B2C2120000A4EB047002801D001
:100380000135EDB26B469A1D08231370073B2D21F2
:100390002000044CA0470028E4D00135EDB2E1E78D
:1003A000150100009502000001680722CB691A427E
:1003B000FCD17047F0B5D6464F464646C0B58AB028
:1003C00006000F00140031600800974B9847974AC9
:1003D000116A851C0123AB400B43136209A9237BDF
:1003E0000B701430C5B22800914B98472800914BF0
:1003F0009847207B0021904B98473B681C209B0727
:1004000005D50AB01CBC90469946A246F0BD3B6893
:100410001738DB07F5D414233B603368984618007F
:10042000814B98470500802308AA1370002353705E
:10043000012208A98A70CB70E069276A002800D1E0
:10044000AFE008AB1870022308AA5370000CC0B2CA
:1004500011007A4B9847002F00D1A7E008AB1F701E
:10046000022308AA53703F0CF8B21100734B98474F
:10047000A38AF380E38A3381237E8022002B04D178
:100480006F4B9B789B07DB0FDA01A16823690B4355
:1004900013432422A25C002A02D08022D2051343F7
:1004A000A26A13432C22A25C002A03D18022920468
:1004B000914202D18022120513432D22A25C002A10
:1004C00002D08022120413432E22A25C002A02D002
:1004D0008022D203134342461268134342461360FC
:1004E00080235B00536028001430C0B2554B9847FE
:1004F0000790FA239B0022685A43914663689A4604
:10050000514DA847009001914B465800A8470290D2
:100510000391208EA847049005914C4F4C4A4D4BB7
:1005200000980199B84702000B0004980599B84754
:10053000494E0022494BB047049005914846A847D0
:1005400002000B0004980599B84702000B00444DC7
:1005500000980199A847029A039BB0470022414B9B
:10056000A847029A039B404DA847404B9847050077
:1005700080239B04A2689A421ED003004020FF2DD6
:1005800000D93EE700240020FF251D402406254316
:100590000004FF231B04184005434346DD60002090
:1005A0002FE700214046324B98474AE70121404659
:1005B0002F4B9847070051E7FA26B60053465E4393
:1005C0000098019902000B00234CA0470090019174
:1005D00030001D4B98470022264BB84702000B0005
:1005E00000980199204CA04700221E4B1C4CA047AC
:1005F0001E4B9847041E0CD0310007981E4B98479D
:100600000238001B2B00FF2D0CD8FF28BCD940203E
:10061000F7E67100481E079B9C466044164B9847BE
:100620000138EFE74020ECE6050D00000004004033
:1006300069170000DD160000410B00006118000082
:100640000020004185170000C5400000AD340000C7
:1006500095D626E80B2E113E2528000000002440E8
:10066000AD3900000000F03F452E0000D93F0000EA
:100670008D0B000000000840F924000003681A7E7A
:10068000920707D502221A765B8B9B074120DB1766
:10069000184070475A8B520706D55968C0229202FB
:1006A0000A435A601820F4E70020F2E730B50268E8
:1006B000002301240225117E21420BD1117E294203
:1006C00006D101339BB201899942F4D8122002E08D
:1006D000002000E0002030BD10B50468626880236F
:1006E000DB02134363606162024B98470123237668
:1006F00010BDC046AD060000F0B5DE4657464E467A
:100700004546E0B583B00600894605684C882B68ED
:100710001B01DB0F9A464B7A002B2BD16B68584A92
:1007200013406B604B461B7A002B27D14B461B882E
:100730005B004A46527A92031343012213436B62D1
:100740003000504B984701905346002B03D04B4646
:100750005B88012B3BD06B68494A13406B60019B5F
:10076000002B3AD0019803B03CBC90469946A24673
:10077000AB46F0BD897A444B9847CFE74B461B8880
:100780005B004A46527A92031343802212021343BB
:100790006B6230003B4B984701906B68384A1340BE
:1007A0006B600028DED13000384B9847019000285C
:1007B000D8D14B461B881B0A782213435B004A465C
:1007C000527A920301210A4313436B62B8E76A68C5
:1007D0008023DB0213436B60C1E730002B4B98474B
:1007E00001900028BED1013CA4B28046284B9B4614
:1007F00015E0012C20D03000264B984743465F1C63
:10080000BFB22823EB5C4A4652684146535430003D
:100810001C4B9847013CA4B2002815D1B8465C4552
:1008200014D06B8B9B0627D5F37A002BE3D053466D
:10083000002BDED1002CDED16A688023DB0213435B
:100840006B60013CA4B2EAE7B8460190B37A002B92
:1008500009D130000F4B98472823EA5C4B465B6870
:1008600041465A547EE730000A4B98476A68C023D5
:100870009B0213436B60ECE74123019372E7C04690
:10088000FFFFFBFFAD060000D90600007D0600005B
:10089000FFFF0000A9030000F0B5DE4657464E46B4
:1008A0004546E0B583B006000F0005684C88324B22
:1008B00098477B7A002B1DD16B68304A13406B60E0
:1008C0003B7A002B1BD03B885B007A7A9203134360
:1008D0008022120213436B623000294B984701902B
:1008E000002813D0019803B03CBC90469946A2461C
:1008F000AB46F0BDB97A3000224B9847DCE73B8825
:100900005B007A7A920313436B62E5E730001E4B7B
:100910009847031E0190E5D1A04600242033994654
:10092000154B9B46164B9A46444515D06B8B4A4651
:1009300013421DD03000D8477B681A5D2823EA5443
:100940003000D047002806D16B8B01345B07EBD514
:100950001E23019300E00190B37A002BC2D0300037
:10096000054B98476A68C0239B0213436B60B9E745
:1009700041230193B6E7C046A9030000FFFFFBFF38
:10098000AD060000D90600007D06000010B5012369
:100990008372C372014B984710BDC046F906000030
:1009A00010B501238372C372014B984710BDC04636
:1009B0009908000010B5002383720133C372014B04
:1009C000984710BD99080000F0B5DE4657464E46E0
:1009D0004546E0B587B08046049116001F0000220E
:1009E000002300218B463F2401202100009601971F
:1009F0005C4603944446059413E02024641A0500E1
:100A0000E540A84614E0009C019D121BAB415C46EA
:100A10004D462C43A346039C45462C430394013981
:100A200025D3202464420C19E7D40500A540A8462C
:100A300004008C40A14692185B4114001D00059EE5
:100A40004F463E40B446049E47463E40B246664648
:100A500057463E4303D00600264332002B00009C3D
:100A6000019D9D42DBD8CED19442D8D8CBE7039BE1
:100A70005846190007B03CBC90469946A246AB4682
:100A8000F0BD10B5490840230024814202D218006D
:100A900010BD1C00091A631C9BB28842F9D940237F
:100AA000FF2CF4D814800023F1E70000F0B583B0E8
:100AB0000F00160008AA117804004C434022BC42E3
:100AC00002D9100003B0F0BD002B14D102000800C1
:100AD0000021194CA04701003A0000230020174CC8
:100AE000A04700220123121A8B41120C1B041A4347
:100AF00032800022E5E70022012BF9D10A00002311
:100B000000210D4CA04702000B0000920193380019
:100B100000210A4CA047050080239B0140229842F7
:100B2000CFD8790FF800009A019BA047EA00821AFB
:100B3000D2B252032A43DBE751260000C909000064
:100B400010B582B004000E4B1B78002B07D0002993
:100B500005D10B4B5B78834210D01D200CE001A91E
:100B60000C701320074B98471320074B9847044BF2
:100B70005C7001221A70002002B010BD0020FBE75B
:100B80009800002069170000DD160000404B9842D5
:100B900031D00AD93F4B98424DD03F4B98425AD062
:100BA0003E4B984237D0002070473D4B98420CD0C6
:100BB0003C4B9842F7D1012917D000295DD002297A
:100BC00015D0032915D00020EEE7012907D0002910
:100BD00051D0022905D0032905D00020E4E732488E
:100BE000E2E73248E0E73248DEE73248DCE7324805
:100BF000DAE73248D8E7012907D000293FD0022997
:100C000005D0032905D00020CEE72D48CCE72D489C
:100C1000CAE72D48C8E7012907D0002931D00229A9
:100C200005D0032905D00020BEE72848BCE72848A6
:100C3000BAE72848B8E7012907D0002923D00229BC
:100C400005D0032905D00020AEE72348ACE72348B0
:100C5000AAE72348A8E7012907D0002915D00229CF
:100C600005D0032905D000209EE71E489CE71E48BA
:100C70009AE71E4898E71E4896E7032094E71D4828
:100C800092E71D4890E71D488EE71D488CE7C04657
:100C90000010004200180042001C004200140042F4
:100CA00000080042000C004203000500030006009B
:100CB000030007000300010003001E0003001F00E3
:100CC0000300090003000A0003000B0003001100E9
:100CD000030012000300130003000D0003000E00C8
:100CE00003000F00030017000300180003001900A1
:100CF00003000400030008000300100003000C00C0
:100D00000300160030B587B00B4B6A4632CB32C2B7
:100D100032CB32C2009B83420BD001239A0069463A
:100D20005258824206D00133062BF7D1002007B07B
:100D300030BD0023D8B2FAE7944C0000F0B5DE468F
:100D400057464E464546E0B591B005000C001600EA
:100D500029600800AB4B9847020023680520DB0799
:100D600006D511B03CBC90469946A246AB46F0BDB4
:100D7000236817309B07F4D4A349086A971C012302
:100D8000BB4003430B620FA92D27F35D0B70143298
:100D9000D3B2029318009D4B984702989C4B9847FA
:100DA000F05D00219B4B9847F37A6B712423F35C31
:100DB000AB712523F35CEB71F37E2B72337F6B7287
:100DC0002B68984618008F4B9847143000220E234A
:100DD00006A98C4663441A80328A02928023DB0182
:100DE0009A4200D19BE00FD9C023DB01029A9A42BC
:100DF00000D18FE080231B029A4200D0FDE0032344
:100E000006930023079308E080239B019A4200D0B9
:100E1000F3E0102306930F3B079333689B46F36878
:100E2000059373690493337E03932623F35C9A46F8
:100E300073689946002B00D19DE080235B0599459E
:100E400000D181E0737E002B02D0B37E42469373C3
:100E50000E2306AA944663441B88424693815B4650
:100E6000059A1343049A13434A461343029F1F43B0
:100E7000039B1B021F4353465B071F432723F35C5F
:100E8000002B01D104331F43737E9B02327F520239
:100E90001343727F120213432422B25C52041343A1
:100EA0002522B25C12041343B17AF27A114319433A
:100EB0003389FF2B00D182E080225204174319436B
:100EC0002C23F35C002B03D1534B9B789B0701D55C
:100ED00080231F432A68D369002BFCD14346596005
:100EE0002A68D369002BFCD143461F600EAB8022D9
:100EF0001A7000225A70DA709A70336B0A93736B0F
:100F00000B93B36B0C93F36B02930D9300270AAD15
:100F1000424E63E008230693073B07937DE733685F
:100F20009B46F368059373690493337E03932623EA
:100F3000F35C9A4673689946002B18D080235B05B2
:100F4000994501D0002025E02723F35C002B00D039
:100F500078E7336A1F00C0B2314B984701000E2278
:100F600006AB9C46624438002E4B984712E008239B
:100F70000693002307932723F35C002B0ED0069BD8
:100F80000093079B0E2206A98C466244B16A306A20
:100F9000254FB847002800D0E3E653E7336A1F0027
:100FA000C0B21F4B98470100069B0093079B0E227F
:100FB00006A88446624438001B4FB847EAE7F37E30
:100FC000002B00D17CE78023DB041F4378E720005F
:100FD000164B984707E00137042F0CD0F9B2BB003D
:100FE00058590028F3D0431CF5D00EA90870000C06
:100FF000C0B2B047EFE70020B3E61023069300230A
:1010000007930AE7050D000000040040691700007F
:10101000DD160000410B00000020004161180000B7
:1010200085170000830A0000AD0A00008D0B000048
:10103000C2791C23002A01D1180070470268107E73
:10104000173BC007F8D511850221137E0B42FCD057
:101050000023F1E70C4B1B68002B06D1EFF3108344
:10106000002B07D00022094B1A70074A136801337E
:101070001360704772B6BFF35F8F0022044B1A7083
:101080000132024B1A70F0E79C000020A000002003
:101090000C000020084B1A68013A1A601B68002BEC
:1010A00009D1064B1B78002B05D00122044B1A7086
:1010B000BFF35F8F62B670479C000020A000002045
:1010C0000C000020F0B583B001AC0125657000274D
:1010D000A770257021001720064EB0478022120409
:1010E000054B9A612770657021003720B04703B027
:1010F000F0BDC046FD1000000044004100B583B0C3
:1011000001AB80221A700A785A704A789A708A78ED
:10111000DA701900014B984703B000BD6118000058
:1011200010B5082803D880001C4B1B589F46002090
:1011300032E01B4B18692FE01A4B1B6A9B059B0F73
:101140001948D84028E0164B586925E0144B1B6815
:1011500000209B0720D513491022CB681A42FCD0EF
:101160000F4B1A6824231340042B01D00F4813E0BF
:1011700000200F4B98470A4B9B681B041B0C5843DD
:101180000AE05023074AD35C00205B0704D5044BD8
:10119000D86801E08020000210BDC046AC4C0000C1
:1011A000A40000200008004000127A00006CDC025D
:1011B0008517000070B50C490B6A04788578407873
:1011C0000122104080014026B34303432A40D2014C
:1011D000802083431343032222401202034803402A
:1011E00013430B6270BDC04600080040FFFCFFFFC8
:1011F000F0B5DE4657464E464546E0B50100264B63
:101200009B469B8A457800784242424191468878C5
:10121000CA7894460A7990464E7B0F7B8C7B8A680D
:101220001E494A6101214A46920091460422934395
:101230004A46134342460A40D2009046082293434E
:101240004246134362460A401201944610229343D9
:1012500062461343084040012022934303430F405A
:10126000BF01402083433B430E40F601403083439F
:101270003343793805402D02094803402B43214070
:101280000903084803400B435A4693823CBC9046EE
:101290009946A246AB46F0BD00080040A4000020DD
:1012A000FFF8FFFFFFEFFFFF10B5037A9B061B0C53
:1012B00042899205920D134318494B608379C27994
:1012C000134342888488224313434278D201134354
:1012D0000B600378042B11D0202B0ED1037B9B06CF
:1012E000028A1343C28912040D490A4013430B4A70
:1012F000936011680B4B0B43136010BD037B9B067F
:10130000028A1343C289120405490A401343034A5F
:101310009360136804210B431360EEE7A4000020E0
:101320000000FF0324040000082803D88000254B98
:101330001B589F46172044E0234A136A02210B439F
:10134000136200203DE0204A936902210B43936120
:10135000002036E01C4A138A02210B43138200202E
:101360002FE0194A938A02210B439382002028E040
:1013700016490B68022213430B60134B9A84190021
:101380000E32CB681A42FCD0104A91680E4BD962DB
:1013900052689A6200229A8419001032CB681A426D
:1013A000FCD00A4B1B689BB2074A9384002008E0DC
:1013B000054944228B5C022003438B54002000E04B
:1013C00000207047D04C000000080040A40000201E
:1013D000F0B58FB0C222D200474B9A60474A53689B
:1013E0001E218B431A390B435360022201AB1A7042
:1013F0000024434DE0B201A9A8470134252CF9D1BE
:101400000AA8002303708370802212028260C370D6
:101410000122027103738373023242704373394BAA
:1014200098470520384B984733490222CB681A4227
:10143000FCD0314A938A80210B43938205AB002173
:101440000022598099809A71DA713F3159813B3974
:1014500019705A702D4B1B689B0E3F2B4AD005A864
:1014600003722B4B0382072303733833C381294B49
:10147000984704A800254570012686700570264B04
:1014800098470620204FB847244B984701AC029656
:101490006570257265720523237021000120204BA1
:1014A000984701201F4B9847267021000020144BBD
:1014B000984700201C4B98470720B8470E49D02278
:1014C000CB681340D02BFBD1184A00231372537200
:1014D0009372D37201A901224A604B700B724B7256
:1014E00007330B7000200E4B984700200D4B984798
:1014F0000FB0F0BD203BB2E70008004000400041C3
:1015000069170000F1110000291300002460800019
:10151000B9050000A9120000B51100003115000046
:10152000551500000D160000DD16000000040040F7
:10153000064A936908210B4393610122044B1A70F8
:1015400019000B781342FCD17047C04600040040DC
:10155000000C004070B5060004000D782D02054314
:101560004B78002B02D08023DB021D434B7A002BEB
:1015700002D080231B031D434868012810D9431E55
:10158000184234D1022830D90223002201325B00F4
:101590009842FBD812023243140080235B031D43A0
:1015A0000B7A002B02D080239B031D43134A5378F0
:1015B0005BB2002BFBDB124B9847124B1E700F4A9D
:1015C00053785BB2002BFBDB0C4B9C601A0053780A
:1015D0005BB2002BFBDB094A5368802149020B40B8
:1015E0001D435560084B984770BD0022D2E70402A6
:1015F000344380239B021D43D2E7C046000C0040C9
:1016000055100000080C00409510000010B50400B3
:101610000B4A53785BB2002BFBDB0A4B98470A4B13
:101620001C70074A53785BB2002BFBDB044A5168FD
:1016300080235B020B435360044B984710BDC046A8
:10164000000C004055100000040C004095100000F4
:1016500070B504001A4A53785BB2002BFBDB194BC0
:101660009847194B1C70164A53785BB2002BFBDB72
:10167000134E7068C004C00E144B98470500124BFF
:101680001C707668F602F60F114B1C700C4A5378EA
:101690005BB2002BFBDB0A4B9C682402240C0D4B35
:1016A0009847002E07D1012C07D9210028000A4BAA
:1016B0009847050001E00134E540280070BDC046B0
:1016C000000C004055100000040C004021110000E7
:1016D000080C004095100000F924000010B504002B
:1016E000064B9847064B1C70064A53888021C90157
:1016F0000B435380044B984710BDC0465510000063
:10170000020C0040000C00409510000010B50400D1
:101710000F4B98470F4B1C700F4A53881B05180F2F
:1017200053880E490B40538053880D490B4053801A
:1017300011008022D2014B881342FCD106494A880D
:1017400003020648024013434B80064B984710BDE6
:1017500055100000020C0040000C0040FFF0FFFF9D
:10176000FFBFFFFF9510000010B50C782402044362
:10177000024B9847A4B2024B5C8010BD0D170000CD
:10178000000C004010B50400064B9847064B1C7037
:10179000064B5C882405240F054B98472000054B19
:1017A000984710BD55100000020C0040000C00408E
:1017B000951000005116000030B5D378002B35D1BC
:1017C0001378802B29D01B0680246402234354788D
:1017D0000225AC4306D19478002C20D18024A402A9
:1017E000234341605478013C012C1CD90D042D0C7D
:1017F000A024E4052C431C4384620D0CD024240651
:101800002C431C438462D478002C22D15B031CD56A
:101810009378012B1ED0416117E00023D7E7C02445
:10182000E4022343DDE70D4C2340DFE741600C0475
:10183000240CA023DB05234383620C0CD0231B065E
:1018400023438362D378002B03D15378013B012BD0
:1018500002D930BD8161F8E78160FAE7FFFFFBFF45
:1018600010B50A00C1090023002904D14309DB0196
:1018700005498C4663441F24204001218140180003
:10188000024B984710BDC04600440041B917000004
:101890007047000010B5054B9847054B9847054B1E
:1018A0009847054B9847054B984710BDD11300004A
:1018B000C510000091180000911800009118000058
:1018C000FEE70000F8B52A4A2A4B9A4211D01A00C6
:1018D000294B9A420DD2294A03339B1A9B080133A4
:1018E0009B000022234822498C58845004329A429B
:1018F000FAD1234A234B9A420AD2D34321495B1897
:1019000003218B4304339B18002102C29342FCD174
:101910001D4AFF211D4B8B439360FD3990235B00D3
:101920001B4AD1501B4AD3780325AB4302242343DF
:10193000D370D3780C27BB4308263343D370164BA0
:10194000987B30229043202210439873997BB943AF
:10195000314399739A7BAA4322439A730F4A53687F
:1019600080210B4353600E4B98470E4B9847FEE780
:10197000304E0000000000207C0000200400002009
:101980007C000020B03C002000ED00E000000000E2
:1019900000700041005000410048004100400041FB
:1019A0009D420000612300000300064A1268002ADD
:1019B00004D0044A1068C318136070470249014AF2
:1019C0001160F6E7BC000020B05C0020012040421E
:1019D000704780239B014B600020704701207047B7
:1019E00000207047030008334360012252428260A6
:1019F000C3600361002303607047002303617047E5
:101A000043685A684A6042688A605A6891605960BF
:101A100041600861036801330360704710B50C68CA
:101A2000631C14D003000833C2681268944204D3C4
:101A30005B685A6812689442FAD25A684A609160A8
:101A40008B605960086103680133036010BD03694E
:101A5000F3E7436882689A60836842685A60036962
:101A60005A68904206D0002202611A68013A1A6050
:101A70001868704782685A60F5E70000064A1368E4
:101A80001868203080F30988022080F314883FBC56
:101A9000AE4662B600BDC046603B002010B5031FD5
:101AA000802464041C60043B1960183B1A604038B1
:101AB00010BD0000084B196808681030F0C8A04637
:101AC000A946B246BB4680F309882038F0C8714663
:101AD0000D2001430847C046603B0020802252058C
:101AE000034B1A60BFF34F8FBFF36F8F7047C04631
:101AF00004ED00E072B6044A136801331360BFF3CB
:101B00004F8FBFF36F8F704710000020034A136898
:101B1000013B1360002B00D162B67047100000201B
:101B2000EFF309800E4B1A6820381060F0C044466D
:101B30004D4656465F46F0C008B572B600F08AFBC7
:101B400062B60CBC116808681030F0C8A046A946FF
:101B5000B246BB4680F309882038F0C81847C04613
:101B6000603B002010B580225205034B1A6072B60C
:101B7000024B984762B610BD04ED00E0311F000033
:101B80000022044B1A60044A044B1A600722044BDB
:101B90001A60704718E000E03F1F000014E000E00A
:101BA00010E000E010B50A4B1968FF2212040A4346
:101BB0001A601968FF2212060A431A60054B9847FB
:101BC0000022054B1A60054B9847002010BDC04607
:101BD00020ED00E0811B0000100000207D1A0000B5
:101BE00070B50400430702D007239C430834114B0F
:101BF0009847114B1B68002B10D0104B1B68E41842
:101C00000F4A944211D8A34211D20B4A1568ED181D
:101C10000A4B1C600B4B9847280070BD07220A4BEB
:101C200008339343044A1360E7E70025F2E70025F1
:101C3000F0E7C046011F0000C00000205C3B002010
:101C40008F3A00004D200000C4000020002801D081
:101C500072B6FEE77047000010B504000E4B1B681B
:101C600058600E4B1B6898420DD30D4B18680A4BF9
:101C7000196804310B4B98470B4B1B689C4209D2E7
:101C8000094B1C6006E0094B1868034B19680431C6
:101C9000044B984710BDC046603B00205C3C0020D0
:101CA000643B00201D1A000014000020683B002047
:101CB000F0B5D6464F4680B583B0050000911600BA
:101CC00001930A9B99460C9F002803D0042B03D94B
:101CD00072B6FEE772B6FEE740205A4B9847041EE4
:101CE0000CD0002F00D078E0B000564B9847071E6C
:101CF000206300D072E02000534B984701204042FF
:101D00005AE00B9B002B00D01C60504B9847504A68
:101D10001368013313604F4B1B68002B51D14D4B9F
:101D20001C601368012B1FD14B4E30004B4DA84750
:101D300030001430A84730002830A84730003C302D
:101D4000A84730005030A847454F3800A847454EB7
:101D50003000A8474448A8474448A8474448A847F3
:101D6000444B1F60444B1E60E36A444A126893422E
:101D700001D9424A136042490A6801320A60414A65
:101D80001268934201D93F4A13609A00D3189B000E
:101D90003148C01800993C4B98473C4B98473C4B06
:101DA0001B680120002B07D02A4B1B68DB6A994572
:101DB00002D9384B9847012003B00CBC91469A4693
:101DC000F0BD334B1B68002BCED1224B1B68DB6A66
:101DD0009945C9D31F4B1C60C6E70763B200A52114
:101DE00038002D4B98472D4BF3189B00226B9446DF
:101DF00063440726B3439A462000343008220099F2
:101E0000274B984700223B23E2544B46E362E363AF
:101E1000231D00931800234FB84720001830B847FF
:101E2000246105234A469B1AA3616462019A290032
:101E300050461D4B98472060304200D161E772B692
:101E4000FEE7C046E11B00004D1C0000F51A000033
:101E5000D03B0020603B00206C3B0020E5190000D7
:101E6000EC3B0020003C00201C3C0020483C0020B3
:101E7000343C0020643B0020683B0020E83B00200D
:101E8000DC3B0020E43B0020011A00000D1B000099
:101E9000303C0020DD1A0000E5420000FFFFFF3F5C
:101EA000C9430000FB1900009D1A000010B584B062
:101EB0000023039302930193009364220A490B4881
:101EC0000B4CA047012803D000280AD172B6FEE7C8
:101ED00072B60122074B1A600022074B1A60074BAB
:101EE000984704B010BDC046F44C0000C521000066
:101EF000B11C0000303C00205C3C0020A51B000011
:101F0000024A1368013313607047C046D83B002073
:101F100010B5044B9847044B1C68044B98472000AD
:101F200010BDC046F51A00005C3C00200D1B0000EF
:101F3000F8B53B4B1B68002B6DD13A4B1A68013248
:101F40001A601B68002B18D1374B1B681B68002BCD
:101F500001D072B6FEE7344B1968344A1068186035
:101F6000116033490A6801320A601B681B68002B44
:101F70001AD1012252422F4B1A602A4B1A682D4B5C
:101F80001B689A424BD3284B1B681B68002B13D04D
:101F9000254B1B68DB68DC686368224A1268934241
:101FA0000FD8254F254E25E01F4B1B68DB68DB68EB
:101FB0005A68204B1A60E0E7012252421D4B1A601A
:101FC0002DE01C4A13602AE09800C01880001C4BCA
:101FD000181829001B4B9847134B1B681B68002BD4
:101FE000EAD0114B1B68DB68DC6863680D4A126835
:101FF0009342E6D8251D2800B847A36A002B03D0DA
:10200000200018300C4B9847E36A32689342DBD9C2
:102010000A4A1360D8E70C4A136801331360F8BD0D
:10202000D83B00205C3C0020643B0020683B002043
:10203000183C002014000020531A0000E43B00204C
:102040006C3B0020011A0000D43B0020F8B52E4B59
:102050001B68002B01D172B6FEE72C4B98472A4B28
:102060001A68013A1A601B680024002B03D1284B20
:102070001B68002B03D1274B98472000F8BD264D45
:102080002B68002B21D0244BDB68DF683800183028
:10209000224B98473E1D3000204B9847FB6A204A50
:1020A0001268934201D91E4A13609800C01880003C
:1020B0001C4B181831001C4B98471C4B1B68FA6AC4
:1020C000DB6A9A42DCD30124DAE7194B1B68002B48
:1020D00013D0174B1B68002B08D0164D144CA84783
:1020E0002368013B23602368002BF8D10022124BA8
:1020F0001A60124B98470124BDE7012CF6D00E4B15
:102100001B68012BB7D1F1E7D83B0020F51A00007E
:10211000D03B00200D1B00001C3C0020531A000087
:10212000E43B00206C3B0020011A0000603B0020D3
:10213000D43B0020311F0000143C0020DD1A0000B9
:1021400070B505000C00002803D0002903D172B639
:10215000FEE772B6FEE7144B98472B68E418134A63
:102160001268934215D9A34219D9104B1B682C60F1
:102170009C4207D90E4B186804300E4B984720003C
:102180000D4B98470D4B9847002801D10C4B9847B1
:1021900070BDA34205D8054B1B689C4201D82C603A
:1021A000F0E72C60E6E7C046011F00005C3C002021
:1021B000603B0020531A0000591C00004D20000015
:1021C000DD1A0000F8B5CE46474680B5164B984656
:1021D000164F174E26E0174B1B68012B20D82B6893
:1021E000002BF8D0C0473C68B047002CF7D0124B0A
:1021F00098470E4BDB68DC68201D104B9847104A4F
:102200001368013B13600F4A1368013B13600E4BC8
:102210009847206B0D4B994698472000C847DEE74A
:102220000B4B9847074DDAE7011F0000483C0020A0
:102230004D2000006C3B0020F51A0000531A0000EE
:10224000D03B0020E03B00200D1B00004D1C000097
:10225000DD1A000010B5244B1B68002B1ED1234B48
:102260001A6893009B189B00214A9B58002B19D198
:102270001E4B1B68002B0FD01C4A1D4C100013680E
:10228000013B136011688B005B189B001B59002BEE
:1022900008D10368002BF2D172B6FEE70122154B7C
:1022A0001A6010BD114B1A681148930099188900E3
:1022B00041184C6864684C609B189B000833C31835
:1022C0009C4209D093009A189200094B9A185368BF
:1022D000DA68094B1A60E4E7606893009B189B007A
:1022E0000349CB185860EDE7D83B0020E43B0020C1
:1022F0006C3B0020143C0020603B002070B582B095
:10230000114B98470190114C114E124D2000B047CF
:1023100021882800104B9847002812D10B4B598870
:102320000C480D4B984700280CD1084B9988094858
:10233000094B9847002806D1642101A8074B98470C
:10234000E4E7FEE7FEE7FEE7111F0000683C00201F
:10235000E5010000843C0020311000004121000014
:1023600030B595B04E4B984704AA8023DB05049303
:1023700000235360FF21118100219372D372012049
:1023800024241055013410552530135401301354B2
:102390009362053013540130135413635363536134
:1023A0001382D37611761177517613239376517772
:1023B000C4239B03D3603B4B93633B4BD363E12329
:1023C0005B02136239493A483A4B9847002800D0DB
:1023D000FEE7374B1B68DA69002AFCD11A68022134
:1023E0000A431A6004AA64230493334B5360002306
:1023F000936013731376802189031161012149428F
:10240000D182918225315354936208315354013162
:10241000535401315354D7331386284BD361284B7F
:10242000136228492848294B9847002804D0284D92
:10243000284C2800A047FCE7234B1B680722D969DA
:102440000A42FCD1196802220A431A601E4AD08847
:102450000022102102E00132824203D25C8B0C4246
:10246000F9D001E010225A831B4A17491B481C4B24
:102470009847002800D0FEE7002303930293194AEF
:10248000019202220092C63217491848184CA04700
:10249000012801D072B6FEE7164B9847FEE7C0460A
:1024A0009518000003002A0003002B0000180042CA
:1024B000843C00203D0D0000480D00000200080093
:1024C0000200090000080042A03C0020B503000003
:1024D000FC4C0000B5430000903C0020683C00200C
:1024E000190300009C3C0020184D0000FD22000054
:1024F000B11C0000AD1E0000002243088B4274D3C3
:1025000003098B425FD3030A8B4244D3030B8B42F4
:1025100028D3030C8B420DD3FF22090212BA030CFD
:102520008B4202D31212090265D0030B8B4219D3DE
:1025300000E0090AC30B8B4201D3CB03C01A5241FE
:10254000830B8B4201D38B03C01A5241430B8B4246
:1025500001D34B03C01A5241030B8B4201D30B032F
:10256000C01A5241C30A8B4201D3CB02C01A524156
:10257000830A8B4201D38B02C01A5241430A8B4219
:1025800001D34B02C01A5241030A8B4201D30B0202
:10259000C01A5241CDD2C3098B4201D3CB01C01A1C
:1025A000524183098B4201D38B01C01A5241430926
:1025B0008B4201D34B01C01A524103098B4201D314
:1025C0000B01C01A5241C3088B4201D3CB00C01A81
:1025D000524183088B4201D38B00C01A52414308F9
:1025E0008B4201D34B00C01A5241411A00D201461E
:1025F000524110467047FFE701B5002000F006F891
:1026000002BDC0460029F7D076E770477047C04644
:10261000002B11D1002A0FD1002900D1002802D0AF
:102620000021C943081C07B4024802A140180290C7
:1026300003BDC046D9FFFFFF03B4684601B5029849
:1026400000F030F8019B9E4602B00CBC7047C046BB
:10265000F0B5CE46474615042D0C2E0080B5070474
:10266000140C3F0C9946030C7E435D436743634360
:102670007F19340CE4199C46A54203D980235B02E0
:102680009846C4444B46514343433604360C250C0C
:1026900024046544A4195918491920000CBC90461B
:1026A0009946F0BDF0B557464E464546DE46E0B584
:1026B000040083B00D00924699468B422FD82CD04F
:1026C0004946504601F0DEFD29000600200001F0D9
:1026D000D9FD331A9846203B9B4600D574E05346FB
:1026E0005A4693401F005346424693401E00AF4255
:1026F00029D826D05B46A41BBD41002B00DA79E027
:10270000002200230092019301235A469340019333
:10271000012342469340009319E08242D0D900221F
:102720000023009201930C9B002B01D01C605D6084
:102730000098019903B03CBC90469946A246AB462E
:10274000F0BDA342D6D90022002300920193434654
:10275000002BE8D0FB0772081A4346467B080EE0C0
:10276000AB4201D1A2420CD8A41A9D4101202419E8
:102770006D410021013E24184D41002E06D0AB4290
:10278000EED9013E24196D41002EF8D15B46009828
:10279000019900196941002B22DB2B005A46D340D6
:1027A0002A004446E2401C005B461500002B2CDB4F
:1027B00026009E40330026004746BE403200801A65
:1027C000994100900191AEE7424620239B1A524660
:1027D000DA40414613004A468A4017001F4382E709
:1027E000424620239B1A2A0046469A402300F34083
:1027F0001343D5E74246202300219B1A0022009173
:1028000001920122DA40019282E74246202326000B
:102810009B1ADE402F00B446974066463B00334388
:10282000C9E7C046F8B54546DE4657464E460C0356
:10283000E0B54E00C90F88460D00610A440F0C43F5
:10284000C70019035800DB0F9B464B0A510F0B437F
:10285000760D400D1900D200D84500D1AEE0351AF2
:10286000002D00DCF6E000280FD1134300D1DBE09F
:102870006B1E002B00D037E1BA1A9742BF41641A91
:102880007F42E41B0126170024E0C64B9E424DD038
:1028900080231B041943382D00DD07E11F2D00DDC7
:1028A00038E12020431B9A460B005046834099464E
:1028B00013004846EB401843030050468240501E28
:1028C0008241E9401A43BA1A611A9742A44117009B
:1028D00064420C1B230262D56402650A002D00D1FC
:1028E000DFE0280001F0B0FC0300083B1F2B00DDF7
:1028F000D2E020223C00D21A9D40D4409F40254384
:102900009E4200DDC4E09E1B731C1F2B00DDF1E026
:10291000202238002900D21AD840914097402C003C
:102920000143781E8741DC4000260F437B0709D016
:102930000F233B40042B05D03B1DBB42BF417F42D0
:10294000E4191F0023022CD5964B01369E4200D17C
:102950009AE04546944BFF081C40600776056402E8
:102960000743240B760D00212403230B0C0D8F4A03
:1029700024051C431440330523435B00ED075B082B
:102980002B43380019003CBC90469946A246AB4602
:10299000F8BD6446044300D111E2040067467B079A
:1029A000C6D145466007FF080743E4087D4B9E42B9
:1029B00030D024037605240B760DD4E7331A9A46DB
:1029C000002B78DD002831D076488642AED08020BA
:1029D000000401435346382B00DCE9E00A43511E52
:1029E0008A410021D219BA42BF4109197C4217001D
:1029F0000C192302D3D56B4B01369E4200D13AE12C
:102A00000120694B1C407B0807401F43E007074338
:102A100064088BE723003B4300D1CBE18022120303
:102A200014432403240B9EE72E007FE70800104385
:102A300000D1B4E0581E002800D0DEE0BA18BA4237
:102A40009B4164185B42E418170001262302A6D5B7
:102A50000226D5E7002D6ED1701C4005400D0128DF
:102A600000DCF9E0B81A844687428041E51A40420A
:102A70002D1A280200D489E0D71BBA4292411C1BB0
:102A80005242A51AD84629E74546002400276AE79E
:102A9000454CF61A2C4049E73D0028388540002770
:102AA0002EE7380001F0D0FB20301DE70A43511E0D
:102AB0008A41002107E7002B00D0F3E0701C43059A
:102AC0005B0D012B00DCADE0364B984200D1D1E02C
:102AD000BA18BA42BF4164187F42E419E7075208A6
:102AE00017436408060021E72E48854200D193E091
:102AF0001D00D0E629001F3EF140202B00D18DE0C3
:102B00004022D31A9D402F437D1EAF4100240F4326
:102B1000002644E72B000800203BD8400300202D6E
:102B200000D17DE04020451BA9400A43511E8A4147
:102B300000211A43C7E6002E50D01A4EB04257D09B
:102B400080266B429946360434434B46382B00DDD1
:102B5000D6E01F2B00DD35E12026F51A2600AE4019
:102B6000B2463E00DE40AC46350056462E43654632
:102B7000AF407D1EAF41DC403743D71BBA42924184
:102B80000C1B5242A41A0600D846A3E664466746C8
:102B90002C4300D0A2E600250026002706E71E00F1
:102BA000C4E6C046FF070000FFFF7FFFFFFF0F8066
:102BB0001F2B63DC2020C31A080098409C468346E4
:102BC00053461000D84003005846184363469A40C5
:102BD000531E9A4153460243D94003E726003E4321
:102BE00006D0EB439946002BC7D0944EB042ACD1EF
:102BF0000C0017000600D84698E6904B9A450BD07B
:102C00008246E7E6002800D09EE01800104300D17D
:102C1000E9E01C001700D846884E87E6002572E7D9
:102C2000002182E723003B43002E00D0ABE0002BC5
:102C300000D1E7E00B00134300D177E6BA18BA429F
:102C4000BF4164187F42E419230200D4F2E07C4BB8
:102C500017001C40060069E620003843002ED1D141
:102C600000285BD11C00144300D1A8E01C00170011
:102C7000D8465BE606000024002797E650460B0086
:102C80002038C34099465346202B00D195E040237D
:102C900050461B1A99400A43511E8A414B46002157
:102CA0001A439FE6002E30D126003E4367D0DB4317
:102CB0009A46002B1CD0614EB04260D05346382B50
:102CC00000DD96E01F2B00DD9FE02026F31A260092
:102CD0009E409C46B34653463E00DE4033005E466F
:102CE0001E4363469F407B1E9F415346DC40374353
:102CF000BF189742924164185242A418060078E621
:102D000027437C1EA741002437E74C4EB04236D003
:102D100080265B4236049A463443CFE718001043BE
:102D200000D103E6B81A84466745AD41E01A6D420A
:102D3000401B050200D42CE6D71BBA4292411C1B53
:102D40005242A41AD846F1E51800104300D163E7B7
:102D5000F808670707438020E4080003044208D00E
:102D6000DD08054205D1D208590711430F002C0098
:102D7000D8467B0FE4001C43FF00304ED6E50C0024
:102D800017000600D2E5002B38D00B00134300D10A
:102D900042E7F808670707438020E408000304427D
:102DA000E7D0CB080342E4D1D208490711430F0012
:102DB0001C00DEE700270024D5E500216BE7002595
:102DC0000027F3E54E462500203EF5404B462E00F9
:102DD000202B2DD04025ED1AAC4027437C1EA74167
:102DE00000243743C9E6802400252403134E00271E
:102DF000DCE527437C1EA741002479E70C0017007F
:102E00000E4E93E50C00170090E556462300203E39
:102E1000F34099465346202B0ED0402356469B1B29
:102E20009C4027437C1EA7414B4600241F435FE77D
:102E30000024D2E71700B2E50024F2E7FF07000004
:102E4000FFFF7FFFF0B557464546DE464E46E0B5EC
:102E50004C000E0387B0834692461D008046360B19
:102E6000640DCF0F002C4FD06F4B9C4235D0802388
:102E7000420F1B04F600134333439946C3009846A0
:102E80006A4B00269C460023644403932B031B0BD0
:102E90009B466B00ED0F50465B0D01955ED0624A7C
:102EA000934253D05A46D1008022400F120402436D
:102EB0000A4393465246D1005C4A9446002263443A
:102EC0003800684084460290E41A16430F2E00D959
:102ED000B4E0574BB6009B599F46030033439946D5
:102EE0006CD100239846023308260393CEE7CB46E5
:102EF0004146039A0197022A65D1019B4A4C9C46A0
:102F00000023002298466BE00300334399464ED0DD
:102F1000002E00D1BCE1300001F096F903000B3B1C
:102F20001C2B00DDACE11D22D31A5A460100DA4009
:102F300008398E401300334399465B468B409846D0
:102F400000233C4C0026241A03939FE751465A461F
:102F5000114329D1002293460232B1E75946014379
:102F60001ED05B46002B00D19EE1584601F06CF963
:102F700003000B3B1C2B00DD8FE102005946083A91
:102F800091408B461D21CB1A5146D9400B00594622
:102F90000B4351469B469140264B00221B1A8FE75C
:102FA000002301229B468BE75146032288E700233A
:102FB0009846013304260024039367E70323B146B0
:102FC00003930C2662E7032A00D15CE2019B012AED
:102FD00000D0E4E113409C460023002400229846E0
:102FE00000211203130B0A0D12051A432305124C7C
:102FF00040462240134362465B00D2075B081343FE
:10300000190007B03CBC90469946A246AB46F0BDBD
:10301000002380229C4612039846034CE0E70023DD
:10302000014C00229846DBE7FF07000001FCFFFF90
:10303000244D00000DFCFFFFFFFF0F80D94500D994
:1030400039E100D134E1002346464D469A46013C21
:103050005B460A0E1B021A430B02170C0393130460
:103060001B0C3900280090460193FFF745FA020037
:10307000019B83465A43280039009146FFF7C2FA64
:10308000350C09040D43A9450DD95B464544013B68
:10309000A84500D93AE1A94500D837E102235B42AF
:1030A0009C464544E3444B46EB1A39001800049310
:1030B000FFF722FA019B0500434339000498994623
:1030C000FFF7A0FA330409041B0C0B43994509D9F7
:1030D00043446A1E984500D91AE1994500D817E182
:1030E000023D43444A469B1A5A4612042A43039916
:1030F0009346100C0A0C914609045A46090C4E4698
:103100000D001204120C4543059151437243704364
:1031100052190E0CB218954203D980256D02AC46A7
:103120006044150C09041204090C28185218834233
:1031300000D2CEE000D1C8E01D1A53469E1AB24517
:1031400092415242AB1A9A46984500D117E1390094
:103150001800FFF7D1F9019B0500434339005046A1
:103160000493FFF74FFA04980B04310C194388427B
:1031700009D941446B1E884500D907E1884200D82F
:1031800004E1023D4144049BCB1A1800390004932A
:10319000FFF7B2F9019B824643433900049801933B
:1031A000FFF730FA01980B043104090C19438842E7
:1031B0000DD953464144013B884500D9E8E0884297
:1031C00000D8E5E002235B429C464144E244019B77
:1031D0002D04CE1A51462943059D4F462A000B0463
:1031E000080C1B0C5A4345437B4378435B19170C6F
:1031F000FB189D4203D980256D02AC4660441D0C2E
:1032000012041B04120C28189B18864200D293E06B
:1032100000D18EE001231943A04BE318002B00DC02
:1032200099E04A0700D09EE05A46D20106D55A4698
:103230009B4B1A4080239346DB00E318994A934244
:1032400068DD0123029A984C1A4000239446984660
:103250000022C5E680224B46120313420AD05B4689
:10326000134206D11A431203120BAC4688468E4C09
:10327000B6E64B461A431203120BBC468A4CAFE625
:1032800003005A46283B9A4000239146984657E649
:10329000584600F0D9FF203040E603005246283B54
:1032A0009A400021934677E600F0CEFF20305FE69B
:1032B000884500D2C7E64B46DE075D0843465B08FB
:1032C0001E434346DB079A46C2E60025924500D3DB
:1032D00033E7039E5946B446E244B245AD416D42E0
:1032E0004544EB180139984507D2984200D97FE050
:1032F00000D1BCE01D1A8B461FE79845FAD1039D0B
:103300005545F2D943468B461D1A16E79B46CAE639
:103310001500E7E65A46C90852070A435B0590467E
:103320005C0D5A460123029952021940120B8C4639
:1033300056E6002B00D16FE746444A1EB04529D916
:103340001100864200D065E7039A934200D061E7FE
:1033500062E7012149420120C21A382A21DD029B7D
:1033600003409C4638E60F220A40042A00D15BE75E
:103370000A00111D914292415242934454E7474B37
:10338000E318002BE5DD01225242F2E71D00FAE6C8
:103390009A461CE7B04239D86ED011003AE7029342
:1033A0003AE71F2A3CDC20239B1A0C005846994020
:1033B00098404B1E99415B46D440D340204308437C
:1033C0001A00430709D00F230340042B05D0010046
:1033D000081D88429B415B42D21813023AD5012353
:1033E000029A01241A400023944698460022F7E5E9
:1033F000022149428C46039DE344AC46E244AA457F
:10340000AD416D424544ED182D1A96E68A1E03998A
:103410004D008D42894149424144761803958FE71A
:103420001F204042C31A5846D8400300202A28D003
:1034300040205D46821A954029434A1E9141194316
:10344000072300220B4009D00F2300220B40080065
:10345000042BBDD1010053075202120BC9081943B6
:10346000012388460299002419408C46B8E552454C
:10347000BED88B46002560E6039D9D42C6D3110051
:1034800062E70025D8E780225B4612031A43019BBE
:103490001203120B9C468846034CA1E5FF03000073
:1034A000FFFFFFFEFE070000FF070000F0B55746D4
:1034B0004546DE464E46E0B50C0398464E00230BCB
:1034C00087B0070092469B46760DCD0F002E6BD03D
:1034D0006D4B9E4235D080245B46420F2404DB00B6
:1034E00014431C43C3009946684BA3469C460023E3
:1034F00000276644029343461C035A00DB0F5046E4
:10350000240B520D984600D176E05F4B9A426DD065
:103510008023410F1B040B435C49E4008C461C4391
:10352000C300002062444146B6186940721C0191F4
:10353000944607430F2F00D9B0E0554ABF00D25937
:1035400097465B460343994600D087E000239B469D
:10355000023308270293CEE742460192022867D041
:10356000032800D10EE2012800D062E100230024EC
:103570000022994601990140CDB2002112030B0DA2
:10358000120B1B051343434A240513401C436400DC
:10359000ED0764082C434846210007B03CBC904628
:1035A0009946A246AB46F0BD034399464FD05B46D1
:1035B000002B00D189E1584600F046FE03000B3B8A
:1035C0001C2B00DD7AE11D22D31A3A0001005C4673
:1035D000DA4008398C4013008F4023439B46B9469C
:1035E00000232D4E0027361A029384E753462343C7
:1035F0002AD10024022096E75346234320D0002CF2
:1036000000D157E1200000F01FFE03000B3B1C2BF4
:1036100000DD49E11D21CB1A51460200D940534635
:10362000083A944093400C431B4A121A00207AE750
:103630000125019B144C1D400023002299469CE764
:103640000024002201206EE7534603206BE700238D
:103650009B4601330427002602934CE7032381464F
:103660000C27029347E78022002300251203994686
:10367000054C82E75C464B4602986FE75C464B463A
:10368000019502986AE7C046FF07000001FCFFFFB2
:10369000644D0000FFFF0F800DFCFFFF4A464946C6
:1036A000170C1A0C1B041B0C08041900000C4143D6
:1036B0001500884619007D43794303958946290002
:1036C000150045434D44029545462D0CAA46029DE2
:1036D0005544A94506D98A46802149028946CA44EB
:1036E00051460391290C0491414609042D04090C0B
:1036F00088462900250C24044144240C059121000E
:1037000041438846210079438A46684341465044F4
:103710008146080C48446F43824503D98021490201
:1037200089464F44010C894639004944029141467B
:103730000F0404993F0C88460004C0198044414698
:10374000049159460F0C0904090C884659438A46CE
:1037500039005143894641464A435146090C8B463C
:103760007B43D2185A44934203D980235B029B4681
:10377000D94451460904090C8A46414661437C43B9
:10378000130C12044B445244A1468A463C00414665
:103790006C434D4351464D440F0C7D19A94503D947
:1037A0008021490288464444049F0399B846414415
:1037B0008B468345804141428846514608042F0488
:1037C000000C3F18584602991018894690429241C1
:1037D0004F44BA46524299469346C244D144CB44E0
:1037E0008F42BF41C245894199459B4193459241D2
:1037F0007F4249422D0C52420F435B4213437F19D3
:10380000FF185B463C19DB0D059A64021C4343021A
:1038100013435D1EAB415A46C00D0343520213438E
:10382000E20156D501205A0803401343E20713432F
:1038300064085A48604400284DDD5A0709D00F2219
:103840001A40042A05D01A1D9A429B415B42E41893
:103850001300E20104D58020514AC00014406044A6
:10386000504A904200DDE3E60125DB0862071A4377
:103870006402019B9146220B4405640D1D407CE6C9
:10388000802259461203114208D0144206D1224325
:103890001203120B45469946434C6EE65B461A43AB
:1038A0001203120B404C68E603005446283B9C4030
:1038B0000023B9E600F0C8FC2030A6E60300283B50
:1038C0009F400023BB4699468AE600F0BDFC2030AD
:1038D00074E6B446ADE701252A1A382A06DD019BB5
:1038E00000241D4000230022994646E61F2A21DCC1
:1038F00020252000AD1A1E00AB40A840D6405D1E1A
:10390000AB4130431843D440430709D00F23034051
:10391000042B05D00300181D98429B415B42E4181C
:10392000230221D50125019B01241D4000230022F3
:10393000994622E61F2521006D42281AC140080041
:10394000202A1DD05F35AA1A944023435C1EA34150
:10395000072503431D400022002D09D00F2200241B
:103960001A401800042AD6D1030065076402220B0E
:10397000DB082B4301259946019B00241D40FCE5F3
:103980000024E2E780220125120322430199120359
:10399000120B0D409946044CEFE5C046FF030000B2
:1039A000FFFFFFFEFE070000FF070000F0B54646E0
:1039B000D6464F460C03C0B5CD0F4E00610A440FEA
:1039C0000C43C1005800400D84468A460F0019037D
:1039D000500F490A0143C648760DA846DB0FD200B6
:1039E000844500D1D8E001204340AB4200D1A6E09D
:1039F0006046351A002D00DC05E1002810D10B00CF
:103A0000134300D1D7E06B1E002B00D04BE153468F
:103A10009F1ABA458041641A4042241A01261EE0CA
:103A2000B34B9E4248D080231B041943382D00DD40
:103A300019E11F2D00DD4CE120230F005B1B10005E
:103A40009A409F40E840531E9A41E940074317437C
:103A50005346DF1B611ABA45A44164420C1B230282
:103A600000D4C5E06402650A002D00D1F6E028000C
:103A700000F0EAFB0300083B1F2B00DDE9E02022F9
:103A80003C00D21A9D40D4409F4025439E4200DD19
:103A9000DBE09E1B731C1F2B00DD0AE12022380097
:103AA000D21A290097402C009140D8407A1E9741A5
:103AB000DC40002601430F437B0709D00F233B4026
:103AC000042B05D03B1DBB42BF417F42E4191F00C0
:103AD000230225D5864B01369E4200D1AFE0854BAF
:103AE00001251C4043466207FF0864027605174320
:103AF000240B760D1D4000212403230B0C0D7E4A60
:103B000024051C431440330523435B00ED075B0889
:103B10002B43380019001CBC90469946A246F0BDC4
:103B2000012543466207FF081743E4081D40704B18
:103B30009E4236D024037605240B760DDBE76346E0
:103B4000F31A002B00DC94E06046002835D068486A
:103B50008642B1D080273F043943382B00DCFDE09A
:103B60000A43170000217A1E974157445745804168
:103B7000091944420C1923023AD55D4B01369E4285
:103B800000D14BE101225B4B1C407B0817401F43D7
:103B9000E207174364088FE70800104300D024E7CA
:103BA00021E723003B4300D1B9E1802212031443F3
:103BB0002403240B9FE72E007EE70800104300D16A
:103BC000CAE0581E8446002800D0E7E0524452451F
:103BD000804164184042241817000126230207D5AB
:103BE0000226CFE764462C4300D1B3E12C006746A0
:103BF0007B0700D062E76307FF081F4301254346A8
:103C0000E4081D4093E7002D78D1751C6D056D0DFE
:103C1000012D00DCF2E05046801A8245BF41651A52
:103C20007F42ED1B8446280200D48CE05046171AD0
:103C3000BA4292410C1B5542651B984614E7012578
:103C4000434600241D40002755E72A4CF61A2C4015
:103C500032E73D0028388540002717E7380000F09C
:103C6000F3FA203006E70A43170000217A1E974135
:103C7000EEE6002B00D0E5E0731C9C465B055B0D77
:103C8000012B00DC9FE01A4B9C4500D1C5E052445B
:103C900052458041641840422418E70752081743F0
:103CA0006408664608E71248854200D185E01D0099
:103CB000BCE629001F3EF140202B00D17FE04022CE
:103CC000D31A9D402F437D1EAF4100240F43002691
:103CD0008EE72B000F00203BDF40202D71D04023CA
:103CE0005D1BA9400A43511E8A4100211743AFE6DC
:103CF000FF070000FFFF7FFFFFFF0F80002E3ED079
:103D0000B34EB44545D0802636046D423443382D39
:103D100000DDA8E01F2D00DD1FE120262700504612
:103D2000761BB740E84007435046B040461EB041BE
:103D3000EC403843171ABA4292410C1B5242A41A63
:103D4000664698468BE6644667462C4300D08BE671
:103D5000002500260027EAE61E00ADE61F2B60DCEA
:103D60002027F81A0F00844687401000D8400743E8
:103D700060468240501E8241D9401743F5E6260036
:103D80005046064305D0ED43002DD3D0904EB445A8
:103D9000BDD10C001700664698468DE68C488342DC
:103DA0000BD06346D9E6002D00D096E00800104302
:103DB00000D1E2E00C0017009846854E7CE6002515
:103DC00080E700218EE7230050460343002E00D0F9
:103DD000A8E0002B00D1DEE00B00134300D16BE61E
:103DE000524452458041641840422418170023026F
:103DF00000D4FDE6774B66461C405DE62500504644
:103E00000543002ECFD1002D4FD10C00144300D11B
:103E1000A0E00C00170098464EE6664600240027F6
:103E200085E61F000800203FF8400700202B00D146
:103E30008EE04020C31A99400A43511E8A41002156
:103E4000174392E6002E14D126005046064362D056
:103E5000DB43002B5CD18718974292416418524291
:103E6000A418664687E650462043441EA04100241D
:103E700060E7574EB4454ED0802636045B4234434B
:103E8000382B00DD7FE01F2B00DD8BE02026270094
:103E90005046F61AB740D84007435046B040461E39
:103EA000B0410743DC40BF18D6E70D00154300D1F1
:103EB00002E65046801A8245BF41651A7F42ED1BDB
:103EC0008446280200D48DE65046171ABA42924121
:103ED0000C1B5242A41A9846EEE50D00154300D182
:103EE0006BE750466707C00807438020E4080003DB
:103EF000044207D0CD08054204D12C009846D708CB
:103F000049070F437B0FE4001C43FF00304ED3E50D
:103F10002F4EB445B4D10C0017006646CCE50027FF
:103F20000024E8E5002B39D00B00134300D144E70F
:103F3000C008670707438020E40800030442E1D07B
:103F4000CB080342DED1D70849070F431C00D9E74D
:103F5000002171E700250027E9E52E002700203E1B
:103F6000F740202D2FD04026751BAC4050462043F3
:103F7000441EA04100243843DCE6802400252403AD
:103F8000134E0027D3E5504620430700781E874193
:103F90000024BF1860E70C0017008DE50C00170027
:103FA0000B4E89E51E002700203EF740202B0CD049
:103FB0004026F31A9C4050462043441EA04107432C
:103FC0000024BF1848E70024D0E70024F3E7C046E8
:103FD000FF070000FFFF7FFF30B5134D0A034B00C2
:103FE000120B5B0DC90F0024AB4210DD0F4CA34236
:103FF0000FDC80240E4D64032243ED1A1F2D0BDDD0
:104000000C48C31ADA405442002900D114002000A1
:1040100030BD094BCC18FAE7084CE840A44663448D
:104020009A400243EFE7C046FE0300001D04000073
:104030003304000013040000FFFFFF7FEDFBFFFFD0
:1040400070B5002830D0C317C4185C40C50F2000DD
:1040500000F0FAF8174B184A1B1AD21A1F2A18DD5B
:10406000164AD21A9440002224035B05240B5B0DF0
:104070000021100024030A0D240B12052243104CCA
:104080001B05224013435B00ED075B082B4319001F
:1040900070BD210091400A000B21081AC4405B0545
:1040A0002403240B5B0DE3E70025002300240022FA
:1040B000DEE7C0461E0400003304000013040000C5
:1040C000FFFF0F8010B5041E28D000F0BDF8154B7F
:1040D000154A1B1AD21A1F2A15DD144AD21A944007
:1040E000002224035B05240B5B0D00211000240338
:1040F0000A0D240B120522430D4C1B0522401343CD
:104100005B00590810BD210091400A000B21081ADC
:10411000C4405B052403240B5B0DE6E70023002469
:104120000022E2E71E040000330400001304000034
:10413000FFFF0F80F0B54C00640D0B03621C450FB0
:104140005B0A52052B43C90FC500520D012A28DD19
:104150003A4AA618FE2E1BDC002E3EDD800102002E
:10416000501E82416D0F2A43DB0013435A0704D0CF
:104170000F221A40042A00D004338022D2041A40AD
:104180005AD00136FF2E03D09B015B0AF4B201E046
:10419000FF2400235802E405400AC90720430843CE
:1041A000F0BD002C07D01D43F2D08020DB0080043E
:1041B0000343FF26DAE72B4303D00523DB08FF2C5C
:1041C00003D05B025B0AE4B2E4E7002B32D080202C
:1041D000C00303435B025B0ADCE73200173214DBE7
:1041E00080221E2712041343BF1B1F2F0FDC144A0B
:1041F000944664442A00A5402E00A340751EAE419B
:10420000FA40334313430026B0E70024D5E70222E7
:104210005242961B1A00F240202F09D009488446CA
:104220006444A3402B435D1EAB41002613439DE72E
:104230000023F7E70023ADE73400BFE780FCFFFF72
:1042400082FCFFFFA2FCFFFF1C2101231B049842FC
:1042500001D3000C10391B0A984201D3000A083917
:104260001B09984201D30009043902A2105C4018CE
:104270007047C04604030202010101010000000072
:104280000000000010B5002903D1FFF7DDFF20304A
:1042900002E0081CFFF7D8FF10BDC04670B500262D
:1042A0000C4D0D4C641BA410A64209D1002600F051
:1042B000ABFD0A4D0A4C641BA410A64205D170BD8B
:1042C000B300EB5898470136EEE7B300EB58984738
:1042D0000136F2E7144E0000144E0000144E0000A8
:1042E000184E000003008218934200D170471970E5
:1042F0000133F9E770B505000E00002804D083698A
:10430000002B01D100F03AFAAB69AC68002B02D166
:10431000280000F033FA244B9C420FD16C68A3892B
:104320001B0702D52369002B20D12100280000F0B3
:10433000B7F800281AD00120404270BD1B4B9C42A8
:1043400001D1AC68EBE71A4B9C42E8D1EC68E6E798
:10435000013B0136A360002B04DAA269934216DB0D
:104360000A2914D023685A1C226019703178A36876
:104370000029EDD1013BA360002B0FDA22000A31A6
:10438000280000F037F8431CD5D00A20D5E72200DA
:10439000280000F02FF8431CE8D1CCE70A2023685E
:1043A0005A1C22601870C8E7C84D0000E84D000094
:1043B000A84D000010B5034B01001868FFF79AFFE5
:1043C00010BDC0461800002070B50400002A00D1BE
:1043D00070BD0D78561E631C25700131002D05D16E
:1043E000A4189C42F4D01D700133FAE71C0032007F
:1043F000ECE70000F8B505000E001400002804D01A
:104400008369002B01D100F0B9F9224B9C422DD1D8
:104410006C68A369A360A3891B0731D52369002BAE
:104420002ED023682269F7B2981A6369F6B29842CF
:1044300005DB2100280000F033F9002826D1A3680D
:104440000130013BA36023685A1C22601F7063691E
:10445000984204D0A389DB071AD50A2E18D121006F
:10446000280000F01DF9002812D00FE00A4B9C42F2
:1044700001D1AC68CDE7094B9C42CAD1EC68C8E7D2
:104480002100280000F00CF80028CAD0012676424E
:104490003000F8BDC84D0000E84D0000A84D0000F8
:1044A000364B70B51D6806000C00002D05D0AB69B9
:1044B000002B02D1280000F061F9314B9C420FD152
:1044C0006C680C23E25E93B219072DD4D90611D47F
:1044D00009230120336037331343A381404270BD69
:1044E000284B9C4201D1AC68EBE7274B9C42E8D1BA
:1044F000EC68E6E75B0713D5616B002908D0230061
:104500004433994202D0300000F03AFA002363634A
:104510002422A3899343A38100236360236923603A
:104520000823A2891343A3812369002B0BD1A02167
:104530008022A389890092000B40934203D021007E
:10454000300000F0D9F90123A289134011D00023D3
:10455000A36063695B42A361002023698342BED1EB
:104560000C23E25E1306BAD540231343A38101381E
:10457000B5E7920700D46369A360EDE71800002057
:10458000C84D0000E84D0000A84D0000F7B58A892D
:1045900005000C00130760D44B68002B04DC0B6C87
:1045A000002B01DC0020FEBDE76A002FFAD00023BB
:1045B0002E682B6080235B011A4034D0606DA38984
:1045C0005B0706D56368C01A636B002B01D0236CB0
:1045D000C01A0200216A00232800E76AB847A189AF
:1045E000431C06D12B681D2B31D82C4ADA40D30747
:1045F0002DD50023636023692360CB0405D5431CBC
:1046000002D12B68002B00D16065616B2E60002900
:10461000C8D023004433994202D0280000F0B0F9FA
:1046200000206063BFE70123216A2800B847431CCC
:10463000C5D12B68002BC2D01D2B01D0162B01D168
:104640002E60AFE74023A2891343A381ABE7402349
:104650000B430120A3814042A5E70F69002FA1D0A1
:104660000B680F60DB1B01930023920700D14B699D
:10467000A360019B002B00DC94E7019B3A00216AB8
:104680002800A66AB047002803DC4023A289134310
:10469000DFE7019B3F181B1A0193EAE70100402066
:1046A0000B6970B505000C00002B01D1002070BD16
:1046B000002804D08369002B01D100F05FF80B4B78
:1046C0009C4209D16C680C22A35E002BEED0210025
:1046D0002800FFF75BFFEAE7054B9C4201D1AC687D
:1046E000F1E7044B9C42EED1EC68ECE7C84D0000CA
:1046F000E84D0000A84D000010B5024900F0B2F8E6
:1047000010BDC046A1460000002310B504000360A0
:104710004360836081814366C28103614361836139
:10472000190008225C30FFF7DDFD054B246263624F
:10473000044BA362044BE362044B236310BDC046E9
:10474000F54A00001D4B0000554B0000814B000056
:1047500070B568254A1E55430E002900743100F0DB
:1047600059F9041E08D000212A00016046600C306F
:10477000A0606832FFF7B6FD200070BD836913B5F5
:104780000400002B28D18364C3640365134B144ACF
:104790001B6882620193984201D10123836120004A
:1047A00000F020F86060200000F01CF8A0602000FD
:1047B00000F018F80022E06004216068FFF7A4FF11
:1047C00001220921A068FFF79FFF02221221E06861
:1047D000FFF79AFF0123A36113BDC046A44D00005B
:1047E000F9460000F8B51E4B07001E68B369002BA0
:1047F00002D13000FFF7C2FF4836B4687368013B4E
:1048000004D53368002B07D03668F6E70C22A55E86
:10481000002D0DD06834F2E704213800FFF798FF2F
:1048200030600028F0D10C2304003B602000F8BD6C
:10483000012320005B42E3810233A381656625608A
:10484000A560656025616561A561082229005C306D
:10485000FFF748FD6563A563A564E564E6E7C04628
:10486000A44D0000F7B5040007000026019148346C
:10487000002C01D13000FEBD6368A5680093009B49
:10488000013B009301D52468F2E7AB89012B08D9DD
:104890000E22AB5E013304D029003800019B9847FB
:1048A00006436835EBE7000070B50E001D000E23CF
:1048B000C95E90B01400002907DA00232B60B38989
:1048C0001B0611D48023DB000FE001AA00F084F95D
:1048D0000028F2DBF022029B12021340054A9B18CB
:1048E0005A4253412B60EDE740230020236010B073
:1048F00070BDC04600E0FFFFF7B502268B890500BA
:104900000C00334206D02300473323602361012388
:104910006361F7BD01AB6A46FFF7C6FF0099070068
:10492000280000F077F8002808D10C22A35E9A0531
:10493000EFD4032293431E43A681E4E70F4BAB62FF
:104940008023A28920601343A381009B20616361BF
:10495000019B002B0DD00E23E15E280000F04EF9E4
:10496000002806D00322A38993431A00012313438E
:10497000A381A0893843A081CBE7C046F946000057
:1049800070B50500002910D00C1F2368002B00DA39
:10499000E418280000F058F91D4A1368002B05D1CF
:1049A00063601460280000F050F970BDA34209D97B
:1049B000216860188342F3D118685B684118216050
:1049C000EEE713005A68002A01D0A242F9D919680B
:1049D0005818A0420BD12068091858181960824253
:1049E000E0D110685268411819605A60DAE7A042B5
:1049F00002D90C232B60D5E721686018824203D1CD
:104A0000106852684118216062605C60CAE7C04665
:104A1000603C0020032370B5CD1C9D430835060083
:104A20000C2D1ED20C25A9421DD8300000F00CF927
:104A3000254A14682100002919D1244C2368002B31
:104A400003D1300000F044F820602900300000F06D
:104A50003FF8431C2CD10C233000336000F0F5F8F4
:104A600003E0002DDFDA0C233360002070BD0B68FB
:104A70005B1B1AD40B2B03D90B60CC18256003E009
:104A80008C420ED163681360300000F0DEF8200025
:104A900007220B30231D9043C31AE7D05A42E2503D
:104AA000E4E74B6863600C00EEE70C004968C2E77E
:104AB0000323C41C9C43A042E0D0211A300000F024
:104AC00007F8431CDAD1C6E7603C0020643C0020B4
:104AD000002370B5064C050008002360FCF764FF56
:104AE000431C03D12368002B00D02B6070BDC0464F
:104AF000AC3C002070B50C000E25495F00F0A6F814
:104B0000002803DB636D1B18636570BDA389024A2F
:104B10001340A381F9E7C046FFEFFFFFF8B51F0080
:104B20008B8905000C001600DB0505D50E23C95E38
:104B30000022022300F074F8A389054A28001340DC
:104B4000A38132000E23E15E3B0000F01FF8F8BDA8
:104B5000FFEFFFFF70B50C000E25495F00F060F815
:104B6000A389421C03D1054A1340A38170BD802252
:104B700052011343A3816065F8E7C046FFEFFFFFD2
:104B800010B50E23C95E00F015F810BD70B5050014
:104B9000080011000022064C22601A0000F072F892
:104BA000431C03D12368002B00D02B6070BDC0468E
:104BB000AC3C0020002370B5064C050008002360C3
:104BC000FCF704FF431C03D12368002B00D02B60AB
:104BD00070BDC046AC3C0020002370B5064C0500FB
:104BE000080011002360FCF7F4FE431C03D1236886
:104BF000002B00D02B6070BDAC3C0020002370B5B2
:104C0000064C050008002360FCF7E8FE431C03D1B6
:104C10002368002B00D02B6070BDC046AC3C002048
:104C200070B50500080011000022064C22601A0031
:104C3000FCF7D6FE431C03D12368002B00D02B6069
:104C400070BDC046AC3C00207047704770B5050091
:104C5000080011000022064C22601A0000F00AF839
:104C6000431C03D12368002B00D02B6070BDC046CD
:104C7000AC3C002058220120014B40421A60704792
:104C8000AC3C002058220120014B40421A60704782
:104C9000AC3C002000080042000C00420010004222
:104CA0000014004200180042001C004232110000B3
:104CB0002E1100002E11000094110000941100002C
:104CC00046110000381100004C1100008211000054
:104CD000541300003413000034130000C01300000C
:104CE0004613000062130000381300007013000028
:104CF000B013000049444C4500000000436F756C40
:104D000064206E6F7420696E697469616C697A657C
:104D10002069326300000000554152545F74617392
:104D20006B0000003C3000001E300000D82F000057
:104D3000F62E0000D82F000010300000D82F000001
:104D4000F62E00001E3000001E3000001030000063
:104D5000F62E0000EE2E0000EE2E0000EE2E0000DB
:104D6000543200009C3600005C3500005C350000C9
:104D700058350000743600007436000066360000B6
:104D800058350000743600006636000074360000A6
:104D9000583500007C3600007C3600007C36000070
:104DA000803800001C00002000000000000000000F
:104DB00000000000000000000000000000000000F3
:104DC00000000000000000000000000000000000E3
:104DD00000000000000000000000000000000000D3
:104DE00000000000000000000000000000000000C3
:104DF00000000000000000000000000000000000B3
:104E00000000000000000000F8B5C046F8BC08BC77
:104E10009E467047DD000000F8B5C046F8BC08BCEF
:084E20009E467047B50000003A
:084E28007CD8FF7F01000000AF
:104E3000BFF35F8F01380028FAD1704701000000EE
:104E4000AAAAAAAAFFFFFFFF1C0000200000000082
:104E5000C84D0000E84D0000A84D00000000000013
:104E60000000000000000000000000000000000042
:104E70000000000000000000000000000000000032
:104E80000000000000000000000000000000000022
:104E90000000000000000000000000000000000012
:0C4EA00000000000000000000000000006
:04000003000018C51C
:00000001FF
